{
  "_format": "hh-sol-artifact-1",
  "contractName": "PublicMintNFT",
  "sourceName": "contracts/PublicMintNFT.sol",
  "abi": [
    {
      "inputs": [
        {
          "internalType": "string",
          "name": "name",
          "type": "string"
        },
        {
          "internalType": "string",
          "name": "symbol",
          "type": "string"
        }
      ],
      "stateMutability": "nonpayable",
      "type": "constructor"
    },
    {
      "anonymous": false,
      "inputs": [
        {
          "indexed": true,
          "internalType": "address",
          "name": "owner",
          "type": "address"
        },
        {
          "indexed": true,
          "internalType": "address",
          "name": "approved",
          "type": "address"
        },
        {
          "indexed": true,
          "internalType": "uint256",
          "name": "tokenId",
          "type": "uint256"
        }
      ],
      "name": "Approval",
      "type": "event"
    },
    {
      "anonymous": false,
      "inputs": [
        {
          "indexed": true,
          "internalType": "address",
          "name": "owner",
          "type": "address"
        },
        {
          "indexed": true,
          "internalType": "address",
          "name": "operator",
          "type": "address"
        },
        {
          "indexed": false,
          "internalType": "bool",
          "name": "approved",
          "type": "bool"
        }
      ],
      "name": "ApprovalForAll",
      "type": "event"
    },
    {
      "anonymous": false,
      "inputs": [
        {
          "indexed": true,
          "internalType": "address",
          "name": "previousOwner",
          "type": "address"
        },
        {
          "indexed": true,
          "internalType": "address",
          "name": "newOwner",
          "type": "address"
        }
      ],
      "name": "OwnershipTransferred",
      "type": "event"
    },
    {
      "anonymous": false,
      "inputs": [
        {
          "indexed": true,
          "internalType": "address",
          "name": "from",
          "type": "address"
        },
        {
          "indexed": true,
          "internalType": "address",
          "name": "to",
          "type": "address"
        },
        {
          "indexed": true,
          "internalType": "uint256",
          "name": "tokenId",
          "type": "uint256"
        }
      ],
      "name": "Transfer",
      "type": "event"
    },
    {
      "inputs": [
        {
          "internalType": "address",
          "name": "to",
          "type": "address"
        },
        {
          "internalType": "uint256",
          "name": "tokenId",
          "type": "uint256"
        }
      ],
      "name": "approve",
      "outputs": [],
      "stateMutability": "nonpayable",
      "type": "function"
    },
    {
      "inputs": [
        {
          "internalType": "address",
          "name": "owner",
          "type": "address"
        }
      ],
      "name": "balanceOf",
      "outputs": [
        {
          "internalType": "uint256",
          "name": "",
          "type": "uint256"
        }
      ],
      "stateMutability": "view",
      "type": "function"
    },
    {
      "inputs": [],
      "name": "baseTokenURI",
      "outputs": [
        {
          "internalType": "string",
          "name": "",
          "type": "string"
        }
      ],
      "stateMutability": "view",
      "type": "function"
    },
    {
      "inputs": [
        {
          "internalType": "uint256",
          "name": "tokenId",
          "type": "uint256"
        }
      ],
      "name": "getApproved",
      "outputs": [
        {
          "internalType": "address",
          "name": "",
          "type": "address"
        }
      ],
      "stateMutability": "view",
      "type": "function"
    },
    {
      "inputs": [
        {
          "internalType": "address",
          "name": "owner",
          "type": "address"
        },
        {
          "internalType": "address",
          "name": "operator",
          "type": "address"
        }
      ],
      "name": "isApprovedForAll",
      "outputs": [
        {
          "internalType": "bool",
          "name": "",
          "type": "bool"
        }
      ],
      "stateMutability": "view",
      "type": "function"
    },
    {
      "inputs": [
        {
          "internalType": "address",
          "name": "to",
          "type": "address"
        },
        {
          "internalType": "uint256",
          "name": "tokenId",
          "type": "uint256"
        }
      ],
      "name": "mint",
      "outputs": [],
      "stateMutability": "nonpayable",
      "type": "function"
    },
    {
      "inputs": [],
      "name": "name",
      "outputs": [
        {
          "internalType": "string",
          "name": "",
          "type": "string"
        }
      ],
      "stateMutability": "view",
      "type": "function"
    },
    {
      "inputs": [],
      "name": "owner",
      "outputs": [
        {
          "internalType": "address",
          "name": "",
          "type": "address"
        }
      ],
      "stateMutability": "view",
      "type": "function"
    },
    {
      "inputs": [
        {
          "internalType": "uint256",
          "name": "tokenId",
          "type": "uint256"
        }
      ],
      "name": "ownerOf",
      "outputs": [
        {
          "internalType": "address",
          "name": "",
          "type": "address"
        }
      ],
      "stateMutability": "view",
      "type": "function"
    },
    {
      "inputs": [],
      "name": "renounceOwnership",
      "outputs": [],
      "stateMutability": "nonpayable",
      "type": "function"
    },
    {
      "inputs": [
        {
          "internalType": "address",
          "name": "from",
          "type": "address"
        },
        {
          "internalType": "address",
          "name": "to",
          "type": "address"
        },
        {
          "internalType": "uint256",
          "name": "tokenId",
          "type": "uint256"
        }
      ],
      "name": "safeTransferFrom",
      "outputs": [],
      "stateMutability": "nonpayable",
      "type": "function"
    },
    {
      "inputs": [
        {
          "internalType": "address",
          "name": "from",
          "type": "address"
        },
        {
          "internalType": "address",
          "name": "to",
          "type": "address"
        },
        {
          "internalType": "uint256",
          "name": "tokenId",
          "type": "uint256"
        },
        {
          "internalType": "bytes",
          "name": "data",
          "type": "bytes"
        }
      ],
      "name": "safeTransferFrom",
      "outputs": [],
      "stateMutability": "nonpayable",
      "type": "function"
    },
    {
      "inputs": [
        {
          "internalType": "address",
          "name": "operator",
          "type": "address"
        },
        {
          "internalType": "bool",
          "name": "approved",
          "type": "bool"
        }
      ],
      "name": "setApprovalForAll",
      "outputs": [],
      "stateMutability": "nonpayable",
      "type": "function"
    },
    {
      "inputs": [
        {
          "internalType": "string",
          "name": "baseURI",
          "type": "string"
        }
      ],
      "name": "setBaseURI",
      "outputs": [],
      "stateMutability": "nonpayable",
      "type": "function"
    },
    {
      "inputs": [
        {
          "internalType": "bytes4",
          "name": "interfaceId",
          "type": "bytes4"
        }
      ],
      "name": "supportsInterface",
      "outputs": [
        {
          "internalType": "bool",
          "name": "",
          "type": "bool"
        }
      ],
      "stateMutability": "view",
      "type": "function"
    },
    {
      "inputs": [],
      "name": "symbol",
      "outputs": [
        {
          "internalType": "string",
          "name": "",
          "type": "string"
        }
      ],
      "stateMutability": "view",
      "type": "function"
    },
    {
      "inputs": [
        {
          "internalType": "uint256",
          "name": "tokenId",
          "type": "uint256"
        }
      ],
      "name": "tokenURI",
      "outputs": [
        {
          "internalType": "string",
          "name": "",
          "type": "string"
        }
      ],
      "stateMutability": "view",
      "type": "function"
    },
    {
      "inputs": [
        {
          "internalType": "address",
          "name": "from",
          "type": "address"
        },
        {
          "internalType": "address",
          "name": "to",
          "type": "address"
        },
        {
          "internalType": "uint256",
          "name": "tokenId",
          "type": "uint256"
        }
      ],
      "name": "transferFrom",
      "outputs": [],
      "stateMutability": "nonpayable",
      "type": "function"
    },
    {
      "inputs": [
        {
          "internalType": "address",
          "name": "newOwner",
          "type": "address"
        }
      ],
      "name": "transferOwnership",
      "outputs": [],
      "stateMutability": "nonpayable",
      "type": "function"
    }
  ],
  "bytecode": "0x60806040523480156200001157600080fd5b50604051620019eb380380620019eb833981016040819052620000349162000193565b818160006200004483826200028c565b5060016200005382826200028c565b505050620000706200006a6200007860201b60201c565b6200007c565b505062000358565b3390565b600680546001600160a01b038381166001600160a01b0319831681179093556040519116919082907f8be0079c531659141344cd1fd0a4f28419497f9722a3daafe3b4186f6b6457e090600090a35050565b634e487b7160e01b600052604160045260246000fd5b600082601f830112620000f657600080fd5b81516001600160401b0380821115620001135762000113620000ce565b604051601f8301601f19908116603f011681019082821181831017156200013e576200013e620000ce565b816040528381526020925086838588010111156200015b57600080fd5b600091505b838210156200017f578582018301518183018401529082019062000160565b600093810190920192909252949350505050565b60008060408385031215620001a757600080fd5b82516001600160401b0380821115620001bf57600080fd5b620001cd86838701620000e4565b93506020850151915080821115620001e457600080fd5b50620001f385828601620000e4565b9150509250929050565b600181811c908216806200021257607f821691505b6020821081036200023357634e487b7160e01b600052602260045260246000fd5b50919050565b601f8211156200028757600081815260208120601f850160051c81016020861015620002625750805b601f850160051c820191505b8181101562000283578281556001016200026e565b5050505b505050565b81516001600160401b03811115620002a857620002a8620000ce565b620002c081620002b98454620001fd565b8462000239565b602080601f831160018114620002f85760008415620002df5750858301515b600019600386901b1c1916600185901b17855562000283565b600085815260208120601f198616915b82811015620003295788860151825594840194600190910190840162000308565b5085821015620003485787850151600019600388901b60f8161c191681555b5050505050600190811b01905550565b61168380620003686000396000f3fe608060405234801561001057600080fd5b50600436106101215760003560e01c806370a08231116100ad578063b88d4fde11610071578063b88d4fde14610257578063c87b56dd1461026a578063d547cfb71461027d578063e985e9c514610285578063f2fde38b146102c157600080fd5b806370a0823114610202578063715018a6146102235780638da5cb5b1461022b57806395d89b411461023c578063a22cb4651461024457600080fd5b806323b872dd116100f457806323b872dd146101a357806340c10f19146101b657806342842e0e146101c957806355f804b3146101dc5780636352211e146101ef57600080fd5b806301ffc9a71461012657806306fdde031461014e578063081812fc14610163578063095ea7b31461018e575b600080fd5b6101396101343660046110a2565b6102d4565b60405190151581526020015b60405180910390f35b610156610326565b604051610145919061110f565b610176610171366004611122565b6103b8565b6040516001600160a01b039091168152602001610145565b6101a161019c366004611157565b6103df565b005b6101a16101b1366004611181565b6104f9565b6101a16101c4366004611157565b61052a565b6101a16101d7366004611181565b610540565b6101a16101ea366004611249565b61055b565b6101766101fd366004611122565b61056f565b610215610210366004611292565b6105cf565b604051908152602001610145565b6101a1610655565b6006546001600160a01b0316610176565b610156610669565b6101a16102523660046112ad565b610678565b6101a16102653660046112e9565b610683565b610156610278366004611122565b6106bb565b610156610722565b610139610293366004611365565b6001600160a01b03918216600090815260056020908152604080832093909416825291909152205460ff1690565b6101a16102cf366004611292565b6107b0565b60006001600160e01b031982166380ac58cd60e01b148061030557506001600160e01b03198216635b5e139f60e01b145b8061032057506301ffc9a760e01b6001600160e01b03198316145b92915050565b60606000805461033590611398565b80601f016020809104026020016040519081016040528092919081815260200182805461036190611398565b80156103ae5780601f10610383576101008083540402835291602001916103ae565b820191906000526020600020905b81548152906001019060200180831161039157829003601f168201915b5050505050905090565b60006103c382610829565b506000908152600460205260409020546001600160a01b031690565b60006103ea8261056f565b9050806001600160a01b0316836001600160a01b03160361045c5760405162461bcd60e51b815260206004820152602160248201527f4552433732313a20617070726f76616c20746f2063757272656e74206f776e656044820152603960f91b60648201526084015b60405180910390fd5b336001600160a01b038216148061047857506104788133610293565b6104ea5760405162461bcd60e51b815260206004820152603d60248201527f4552433732313a20617070726f76652063616c6c6572206973206e6f7420746f60448201527f6b656e206f776e6572206f7220617070726f76656420666f7220616c6c0000006064820152608401610453565b6104f48383610888565b505050565b61050333826108f6565b61051f5760405162461bcd60e51b8152600401610453906113d2565b6104f4838383610975565b610532610ad9565b61053c8282610b33565b5050565b6104f483838360405180602001604052806000815250610683565b610563610ad9565b600761053c828261146d565b6000818152600260205260408120546001600160a01b0316806103205760405162461bcd60e51b8152602060048201526018602482015277115490cdcc8c4e881a5b9d985b1a59081d1bdad95b88125160421b6044820152606401610453565b60006001600160a01b0382166106395760405162461bcd60e51b815260206004820152602960248201527f4552433732313a2061646472657373207a65726f206973206e6f7420612076616044820152683634b21037bbb732b960b91b6064820152608401610453565b506001600160a01b031660009081526003602052604090205490565b61065d610ad9565b6106676000610cbe565b565b60606001805461033590611398565b61053c338383610d10565b61068d33836108f6565b6106a95760405162461bcd60e51b8152600401610453906113d2565b6106b584848484610dde565b50505050565b60606106c682610829565b60006106d0610e11565b905060008151116106f0576040518060200160405280600081525061071b565b806106fa84610e20565b60405160200161070b92919061152d565b6040516020818303038152906040525b9392505050565b6007805461072f90611398565b80601f016020809104026020016040519081016040528092919081815260200182805461075b90611398565b80156107a85780601f1061077d576101008083540402835291602001916107a8565b820191906000526020600020905b81548152906001019060200180831161078b57829003601f168201915b505050505081565b6107b8610ad9565b6001600160a01b03811661081d5760405162461bcd60e51b815260206004820152602660248201527f4f776e61626c653a206e6577206f776e657220697320746865207a65726f206160448201526564647265737360d01b6064820152608401610453565b61082681610cbe565b50565b6000818152600260205260409020546001600160a01b03166108265760405162461bcd60e51b8152602060048201526018602482015277115490cdcc8c4e881a5b9d985b1a59081d1bdad95b88125160421b6044820152606401610453565b600081815260046020526040902080546001600160a01b0319166001600160a01b03841690811790915581906108bd8261056f565b6001600160a01b03167f8c5be1e5ebec7d5bd14f71427d1e84f3dd0314c0f7b2291e5b200ac8c7c3b92560405160405180910390a45050565b6000806109028361056f565b9050806001600160a01b0316846001600160a01b0316148061094957506001600160a01b0380821660009081526005602090815260408083209388168352929052205460ff165b8061096d5750836001600160a01b0316610962846103b8565b6001600160a01b0316145b949350505050565b826001600160a01b03166109888261056f565b6001600160a01b0316146109ae5760405162461bcd60e51b81526004016104539061155c565b6001600160a01b038216610a105760405162461bcd60e51b8152602060048201526024808201527f4552433732313a207472616e7366657220746f20746865207a65726f206164646044820152637265737360e01b6064820152608401610453565b826001600160a01b0316610a238261056f565b6001600160a01b031614610a495760405162461bcd60e51b81526004016104539061155c565b600081815260046020908152604080832080546001600160a01b03199081169091556001600160a01b0387811680865260038552838620805460001901905590871680865283862080546001019055868652600290945282852080549092168417909155905184937fddf252ad1be2c89b69c2b068fc378daa952ba7f163c4a11628f55a4df523b3ef91a4505050565b6006546001600160a01b031633146106675760405162461bcd60e51b815260206004820181905260248201527f4f776e61626c653a2063616c6c6572206973206e6f7420746865206f776e65726044820152606401610453565b6001600160a01b038216610b895760405162461bcd60e51b815260206004820181905260248201527f4552433732313a206d696e7420746f20746865207a65726f20616464726573736044820152606401610453565b6000818152600260205260409020546001600160a01b031615610bee5760405162461bcd60e51b815260206004820152601c60248201527f4552433732313a20746f6b656e20616c7265616479206d696e746564000000006044820152606401610453565b6000818152600260205260409020546001600160a01b031615610c535760405162461bcd60e51b815260206004820152601c60248201527f4552433732313a20746f6b656e20616c7265616479206d696e746564000000006044820152606401610453565b6001600160a01b038216600081815260036020908152604080832080546001019055848352600290915280822080546001600160a01b0319168417905551839291907fddf252ad1be2c89b69c2b068fc378daa952ba7f163c4a11628f55a4df523b3ef908290a45050565b600680546001600160a01b038381166001600160a01b0319831681179093556040519116919082907f8be0079c531659141344cd1fd0a4f28419497f9722a3daafe3b4186f6b6457e090600090a35050565b816001600160a01b0316836001600160a01b031603610d715760405162461bcd60e51b815260206004820152601960248201527f4552433732313a20617070726f766520746f2063616c6c6572000000000000006044820152606401610453565b6001600160a01b03838116600081815260056020908152604080832094871680845294825291829020805460ff191686151590811790915591519182527f17307eab39ab6107e8899845ad3d59bd9653f200f220920489ca2b5937696c31910160405180910390a3505050565b610de9848484610975565b610df584848484610eb3565b6106b55760405162461bcd60e51b8152600401610453906115a1565b60606007805461033590611398565b60606000610e2d83610fb4565b600101905060008167ffffffffffffffff811115610e4d57610e4d6111bd565b6040519080825280601f01601f191660200182016040528015610e77576020820181803683370190505b5090508181016020015b600019016f181899199a1a9b1b9c1cb0b131b232b360811b600a86061a8153600a8504945084610e8157509392505050565b60006001600160a01b0384163b15610fa957604051630a85bd0160e11b81526001600160a01b0385169063150b7a0290610ef79033908990889088906004016115f3565b6020604051808303816000875af1925050508015610f32575060408051601f3d908101601f19168201909252610f2f91810190611630565b60015b610f8f573d808015610f60576040519150601f19603f3d011682016040523d82523d6000602084013e610f65565b606091505b508051600003610f875760405162461bcd60e51b8152600401610453906115a1565b805181602001fd5b6001600160e01b031916630a85bd0160e11b14905061096d565b506001949350505050565b60008072184f03e93ff9f4daa797ed6e38ed64bf6a1f0160401b8310610ff35772184f03e93ff9f4daa797ed6e38ed64bf6a1f0160401b830492506040015b6d04ee2d6d415b85acef8100000000831061101f576d04ee2d6d415b85acef8100000000830492506020015b662386f26fc10000831061103d57662386f26fc10000830492506010015b6305f5e1008310611055576305f5e100830492506008015b612710831061106957612710830492506004015b6064831061107b576064830492506002015b600a83106103205760010192915050565b6001600160e01b03198116811461082657600080fd5b6000602082840312156110b457600080fd5b813561071b8161108c565b60005b838110156110da5781810151838201526020016110c2565b50506000910152565b600081518084526110fb8160208601602086016110bf565b601f01601f19169290920160200192915050565b60208152600061071b60208301846110e3565b60006020828403121561113457600080fd5b5035919050565b80356001600160a01b038116811461115257600080fd5b919050565b6000806040838503121561116a57600080fd5b6111738361113b565b946020939093013593505050565b60008060006060848603121561119657600080fd5b61119f8461113b565b92506111ad6020850161113b565b9150604084013590509250925092565b634e487b7160e01b600052604160045260246000fd5b600067ffffffffffffffff808411156111ee576111ee6111bd565b604051601f8501601f19908116603f01168101908282118183101715611216576112166111bd565b8160405280935085815286868601111561122f57600080fd5b858560208301376000602087830101525050509392505050565b60006020828403121561125b57600080fd5b813567ffffffffffffffff81111561127257600080fd5b8201601f8101841361128357600080fd5b61096d848235602084016111d3565b6000602082840312156112a457600080fd5b61071b8261113b565b600080604083850312156112c057600080fd5b6112c98361113b565b9150602083013580151581146112de57600080fd5b809150509250929050565b600080600080608085870312156112ff57600080fd5b6113088561113b565b93506113166020860161113b565b925060408501359150606085013567ffffffffffffffff81111561133957600080fd5b8501601f8101871361134a57600080fd5b611359878235602084016111d3565b91505092959194509250565b6000806040838503121561137857600080fd5b6113818361113b565b915061138f6020840161113b565b90509250929050565b600181811c908216806113ac57607f821691505b6020821081036113cc57634e487b7160e01b600052602260045260246000fd5b50919050565b6020808252602d908201527f4552433732313a2063616c6c6572206973206e6f7420746f6b656e206f776e6560408201526c1c881bdc88185c1c1c9bdd9959609a1b606082015260800190565b601f8211156104f457600081815260208120601f850160051c810160208610156114465750805b601f850160051c820191505b8181101561146557828155600101611452565b505050505050565b815167ffffffffffffffff811115611487576114876111bd565b61149b816114958454611398565b8461141f565b602080601f8311600181146114d057600084156114b85750858301515b600019600386901b1c1916600185901b178555611465565b600085815260208120601f198616915b828110156114ff578886015182559484019460019091019084016114e0565b508582101561151d5787850151600019600388901b60f8161c191681555b5050505050600190811b01905550565b6000835161153f8184602088016110bf565b8351908301906115538183602088016110bf565b01949350505050565b60208082526025908201527f4552433732313a207472616e736665722066726f6d20696e636f72726563742060408201526437bbb732b960d91b606082015260800190565b60208082526032908201527f4552433732313a207472616e7366657220746f206e6f6e20455243373231526560408201527131b2b4bb32b91034b6b83632b6b2b73a32b960711b606082015260800190565b6001600160a01b0385811682528416602082015260408101839052608060608201819052600090611626908301846110e3565b9695505050505050565b60006020828403121561164257600080fd5b815161071b8161108c56fea264697066735822122018c9177eeba52e6a3a40cea15a70fdf0bd07880452ab8865b33b95b7a41b8e8a64736f6c63430008150033",
  "linkReferences": {},
  "deployedLinkReferences": {}
}