{
  "_format": "hh-sol-artifact-1",
  "contractName": "PublicMintNFTCappedFactory",
  "sourceName": "contracts/PublicMintNFT.sol",
  "abi": [
    {
      "inputs": [
        {
          "internalType": "address",
          "name": "_initialOwner",
          "type": "address"
        }
      ],
      "stateMutability": "nonpayable",
      "type": "constructor"
    },
    {
      "anonymous": false,
      "inputs": [
        {
          "indexed": true,
          "internalType": "address",
          "name": "contractAddress",
          "type": "address"
        },
        {
          "indexed": false,
          "internalType": "string",
          "name": "name",
          "type": "string"
        },
        {
          "indexed": false,
          "internalType": "string",
          "name": "symbol",
          "type": "string"
        },
        {
          "indexed": false,
          "internalType": "uint256",
          "name": "totalCap",
          "type": "uint256"
        },
        {
          "indexed": false,
          "internalType": "address",
          "name": "owner",
          "type": "address"
        }
      ],
      "name": "ContractDeployed",
      "type": "event"
    },
    {
      "anonymous": false,
      "inputs": [
        {
          "indexed": true,
          "internalType": "address",
          "name": "from",
          "type": "address"
        },
        {
          "indexed": true,
          "internalType": "address",
          "name": "to",
          "type": "address"
        },
        {
          "indexed": true,
          "internalType": "uint256",
          "name": "tokenId",
          "type": "uint256"
        }
      ],
      "name": "Transfer",
      "type": "event"
    },
    {
      "anonymous": false,
      "inputs": [
        {
          "indexed": true,
          "internalType": "address",
          "name": "contractAddress",
          "type": "address"
        },
        {
          "indexed": false,
          "internalType": "address",
          "name": "to",
          "type": "address"
        }
      ],
      "name": "NFTMinted",
      "type": "event"
    },
    {
      "anonymous": false,
      "inputs": [
        {
          "indexed": true,
          "internalType": "address",
          "name": "previousOwner",
          "type": "address"
        },
        {
          "indexed": true,
          "internalType": "address",
          "name": "newOwner",
          "type": "address"
        }
      ],
      "name": "OwnershipTransferred",
      "type": "event"
    },
    {
      "inputs": [
        {
          "internalType": "string",
          "name": "name",
          "type": "string"
        },
        {
          "internalType": "string",
          "name": "symbol",
          "type": "string"
        },
        {
          "internalType": "uint256",
          "name": "totalCap",
          "type": "uint256"
        },
        {
          "internalType": "address",
          "name": "owner",
          "type": "address"
        },
        {
          "internalType": "string",
          "name": "baseURI",
          "type": "string"
        }
      ],
      "name": "deployCappedNFTContract",
      "outputs": [
        {
          "internalType": "address",
          "name": "",
          "type": "address"
        }
      ],
      "stateMutability": "nonpayable",
      "type": "function"
    },
    {
      "inputs": [
        {
          "internalType": "address",
          "name": "contractAddress",
          "type": "address"
        },
        {
          "internalType": "address",
          "name": "to",
          "type": "address"
        }
      ],
      "name": "mintNftContract",
      "outputs": [],
      "stateMutability": "nonpayable",
      "type": "function"
    },
    {
      "inputs": [],
      "name": "owner",
      "outputs": [
        {
          "internalType": "address",
          "name": "",
          "type": "address"
        }
      ],
      "stateMutability": "view",
      "type": "function"
    },
    {
      "inputs": [],
      "name": "renounceOwnership",
      "outputs": [],
      "stateMutability": "nonpayable",
      "type": "function"
    },
    {
      "inputs": [
        {
          "internalType": "address",
          "name": "contractAddress",
          "type": "address"
        },
        {
          "internalType": "string",
          "name": "baseURI",
          "type": "string"
        }
      ],
      "name": "setMintContractBaseUri",
      "outputs": [],
      "stateMutability": "nonpayable",
      "type": "function"
    },
    {
      "inputs": [
        {
          "internalType": "address",
          "name": "newOwner",
          "type": "address"
        }
      ],
      "name": "transferOwnership",
      "outputs": [],
      "stateMutability": "nonpayable",
      "type": "function"
    }
  ],
  "bytecode": "0x608060405234801561001057600080fd5b5060405161246938038061246983398101604081905261002f91610097565b61003833610047565b61004181610047565b506100c7565b600080546001600160a01b038381166001600160a01b0319831681178455604051919092169283917f8be0079c531659141344cd1fd0a4f28419497f9722a3daafe3b4186f6b6457e09190a35050565b6000602082840312156100a957600080fd5b81516001600160a01b03811681146100c057600080fd5b9392505050565b612393806100d66000396000f3fe60806040523480156200001157600080fd5b50600436106200006a5760003560e01c806324b78586146200006f5780633caef18b14620000a2578063715018a614620000bb5780638da5cb5b14620000c5578063ae152cf314620000d7578063f2fde38b14620000ee575b600080fd5b6200008662000080366004620004d8565b62000105565b6040516001600160a01b03909116815260200160405180910390f35b620000b9620000b336600462000587565b620001a0565b005b620000b962000210565b6000546001600160a01b031662000086565b620000b9620000e8366004620005db565b62000228565b620000b9620000ff36600462000613565b620002d3565b6000808686868630876040516200011c9062000402565b6200012d9695949392919062000680565b604051809103906000f0801580156200014a573d6000803e3d6000fd5b509050806001600160a01b03167f0f0cc0fbfe5f40f1eb89e646e3611cf7d923664b85036897696b663139e672ac888888886040516200018e9493929190620006ea565b60405180910390a29695505050505050565b620001aa62000356565b6040516355f804b360e01b81526001600160a01b038316906355f804b390620001d890849060040162000735565b600060405180830381600087803b158015620001f357600080fd5b505af115801562000208573d6000803e3d6000fd5b505050505050565b6200021a62000356565b620002266000620003b2565b565b6200023262000356565b6040516335313c2160e11b81526001600160a01b038281166004830152831690636a62784290602401600060405180830381600087803b1580156200027657600080fd5b505af11580156200028b573d6000803e3d6000fd5b50506040516001600160a01b038481168252851692507f4765472e8d7a205f24a8863709e382af628b1267cefb31a8d59dfeec4c042433915060200160405180910390a25050565b620002dd62000356565b6001600160a01b038116620003485760405162461bcd60e51b815260206004820152602660248201527f4f776e61626c653a206e6577206f776e657220697320746865207a65726f206160448201526564647265737360d01b60648201526084015b60405180910390fd5b6200035381620003b2565b50565b6000546001600160a01b03163314620002265760405162461bcd60e51b815260206004820181905260248201527f4f776e61626c653a2063616c6c6572206973206e6f7420746865206f776e657260448201526064016200033f565b600080546001600160a01b038381166001600160a01b0319831681178455604051919092169283917f8be0079c531659141344cd1fd0a4f28419497f9722a3daafe3b4186f6b6457e09190a35050565b611c13806200074b83390190565b634e487b7160e01b600052604160045260246000fd5b600082601f8301126200043857600080fd5b813567ffffffffffffffff8082111562000456576200045662000410565b604051601f8301601f19908116603f0116810190828211818310171562000481576200048162000410565b816040528381528660208588010111156200049b57600080fd5b836020870160208301376000602085830101528094505050505092915050565b80356001600160a01b0381168114620004d357600080fd5b919050565b600080600080600060a08688031215620004f157600080fd5b853567ffffffffffffffff808211156200050a57600080fd5b6200051889838a0162000426565b965060208801359150808211156200052f57600080fd5b6200053d89838a0162000426565b9550604088013594506200055460608901620004bb565b935060808801359150808211156200056b57600080fd5b506200057a8882890162000426565b9150509295509295909350565b600080604083850312156200059b57600080fd5b620005a683620004bb565b9150602083013567ffffffffffffffff811115620005c357600080fd5b620005d18582860162000426565b9150509250929050565b60008060408385031215620005ef57600080fd5b620005fa83620004bb565b91506200060a60208401620004bb565b90509250929050565b6000602082840312156200062657600080fd5b6200063182620004bb565b9392505050565b6000815180845260005b81811015620006605760208185018101518683018201520162000642565b506000602082860101526020601f19601f83011685010191505092915050565b60c0815260006200069560c083018962000638565b8281036020840152620006a9818962000638565b604084018890526001600160a01b0387811660608601528616608085015283810360a08501529050620006dd818562000638565b9998505050505050505050565b608081526000620006ff608083018762000638565b828103602084015262000713818762000638565b604084019590955250506001600160a01b039190911660609091015292915050565b6020815260006200063160208301846200063856fe608060405260016008553480156200001657600080fd5b5060405162001c1338038062001c138339810160408190526200003991620001ed565b858560006200004983826200033b565b5060016200005882826200033b565b50505060008411620000b05760405162461bcd60e51b815260206004820181905260248201527f546f74616c20636170206d7573742062652067726561746572207468616e2030604482015260640160405180910390fd5b6007849055600980546001600160a01b0319166001600160a01b038581169190911790915582166000908152600a60205260409020805460ff191660011790556006620000fe82826200033b565b5050505050505062000407565b634e487b7160e01b600052604160045260246000fd5b600082601f8301126200013357600080fd5b81516001600160401b03808211156200015057620001506200010b565b604051601f8301601f19908116603f011681019082821181831017156200017b576200017b6200010b565b816040528381526020925086838588010111156200019857600080fd5b600091505b83821015620001bc57858201830151818301840152908201906200019d565b600093810190920192909252949350505050565b80516001600160a01b0381168114620001e857600080fd5b919050565b60008060008060008060c087890312156200020757600080fd5b86516001600160401b03808211156200021f57600080fd5b6200022d8a838b0162000121565b975060208901519150808211156200024457600080fd5b620002528a838b0162000121565b9650604089015195506200026960608a01620001d0565b94506200027960808a01620001d0565b935060a08901519150808211156200029057600080fd5b506200029f89828a0162000121565b9150509295509295509295565b600181811c90821680620002c157607f821691505b602082108103620002e257634e487b7160e01b600052602260045260246000fd5b50919050565b601f8211156200033657600081815260208120601f850160051c81016020861015620003115750805b601f850160051c820191505b8181101562000332578281556001016200031d565b5050505b505050565b81516001600160401b038111156200035757620003576200010b565b6200036f81620003688454620002ac565b84620002e8565b602080601f831160018114620003a757600084156200038e5750858301515b600019600386901b1c1916600185901b17855562000332565b600085815260208120601f198616915b82811015620003d857888601518255948401946001909101908401620003b7565b5085821015620003f75787850151600019600388901b60f8161c191681555b5050505050600190811b01905550565b6117fc80620004176000396000f3fe608060405234801561001057600080fd5b506004361061014d5760003560e01c806370a08231116100c3578063b88d4fde1161007c578063b88d4fde146102c4578063c87b56dd146102d7578063caa0f92a146102ea578063ce606ee0146102f2578063d547cfb714610305578063e985e9c51461030d57600080fd5b806370a082311461025857806395d89b411461026b578063a22cb46514610273578063a60b693d14610286578063a76f81321461028e578063b3bcc0e7146102a157600080fd5b806323b872dd1161011557806323b872dd146101e657806342842e0e146101f957806355f804b31461020c5780636352211e1461021f57806365fd9d97146102325780636a6278421461024557600080fd5b806301ffc9a71461015257806306fdde031461017a578063081812fc1461018f578063095ea7b3146101ba57806316450092146101cf575b600080fd5b6101656101603660046111b2565b610349565b60405190151581526020015b60405180910390f35b61018261039b565b604051610171919061121f565b6101a261019d366004611232565b61042d565b6040516001600160a01b039091168152602001610171565b6101cd6101c8366004611267565b610454565b005b6101d860075481565b604051908152602001610171565b6101cd6101f4366004611291565b61056e565b6101cd610207366004611291565b61059f565b6101cd61021a366004611359565b6105ba565b6101a261022d366004611232565b610613565b6101cd6102403660046113a2565b610673565b6101cd6102533660046113a2565b6106e8565b6101d86102663660046113a2565b61079d565b610182610823565b6101cd6102813660046113bd565b610832565b6007546101d8565b6101cd61029c3660046113a2565b61083d565b6101656102af3660046113a2565b600a6020526000908152604090205460ff1681565b6101cd6102d23660046113f9565b6108b5565b6101826102e5366004611232565b6108ed565b6008546101d8565b6009546101a2906001600160a01b031681565b610182610954565b61016561031b366004611475565b6001600160a01b03918216600090815260056020908152604080832093909416825291909152205460ff1690565b60006001600160e01b031982166380ac58cd60e01b148061037a57506001600160e01b03198216635b5e139f60e01b145b8061039557506301ffc9a760e01b6001600160e01b03198316145b92915050565b6060600080546103aa906114a8565b80601f01602080910402602001604051908101604052809291908181526020018280546103d6906114a8565b80156104235780601f106103f857610100808354040283529160200191610423565b820191906000526020600020905b81548152906001019060200180831161040657829003601f168201915b5050505050905090565b6000610438826109e2565b506000908152600460205260409020546001600160a01b031690565b600061045f82610613565b9050806001600160a01b0316836001600160a01b0316036104d15760405162461bcd60e51b815260206004820152602160248201527f4552433732313a20617070726f76616c20746f2063757272656e74206f776e656044820152603960f91b60648201526084015b60405180910390fd5b336001600160a01b03821614806104ed57506104ed813361031b565b61055f5760405162461bcd60e51b815260206004820152603d60248201527f4552433732313a20617070726f76652063616c6c6572206973206e6f7420746f60448201527f6b656e206f776e6572206f7220617070726f76656420666f7220616c6c00000060648201526084016104c8565b6105698383610a44565b505050565b6105783382610ab2565b6105945760405162461bcd60e51b81526004016104c8906114e2565b610569838383610b31565b610569838383604051806020016040528060008152506108b5565b6009546001600160a01b03163314806105e75750336000908152600a602052604090205460ff1615156001145b6106035760405162461bcd60e51b81526004016104c89061152f565b600661060f82826115bf565b5050565b6000818152600260205260408120546001600160a01b0316806103955760405162461bcd60e51b8152602060048201526018602482015277115490cdcc8c4e881a5b9d985b1a59081d1bdad95b88125160421b60448201526064016104c8565b6009546001600160a01b031633146106c75760405162461bcd60e51b815260206004820152601760248201527621b0b63632b91034b9903737ba103a34329037bbb732b960491b60448201526064016104c8565b6001600160a01b03166000908152600a60205260409020805460ff19169055565b6009546001600160a01b03163314806107155750336000908152600a602052604090205460ff1615156001145b6107315760405162461bcd60e51b81526004016104c89061152f565b60075460085411156107795760405162461bcd60e51b8152602060048201526011602482015270151bdd185b0818d85c081c995858da1959607a1b60448201526064016104c8565b61078581600854610c95565b600880549060006107958361167f565b919050555050565b60006001600160a01b0382166108075760405162461bcd60e51b815260206004820152602960248201527f4552433732313a2061646472657373207a65726f206973206e6f7420612076616044820152683634b21037bbb732b960b91b60648201526084016104c8565b506001600160a01b031660009081526003602052604090205490565b6060600180546103aa906114a8565b61060f338383610e20565b6009546001600160a01b031633146108915760405162461bcd60e51b815260206004820152601760248201527621b0b63632b91034b9903737ba103a34329037bbb732b960491b60448201526064016104c8565b6001600160a01b03166000908152600a60205260409020805460ff19166001179055565b6108bf3383610ab2565b6108db5760405162461bcd60e51b81526004016104c8906114e2565b6108e784848484610eee565b50505050565b60606108f8826109e2565b6000610902610f21565b90506000815111610922576040518060200160405280600081525061094d565b8061092c84610f30565b60405160200161093d9291906116a6565b6040516020818303038152906040525b9392505050565b60068054610961906114a8565b80601f016020809104026020016040519081016040528092919081815260200182805461098d906114a8565b80156109da5780601f106109af576101008083540402835291602001916109da565b820191906000526020600020905b8154815290600101906020018083116109bd57829003601f168201915b505050505081565b6000818152600260205260409020546001600160a01b0316610a415760405162461bcd60e51b8152602060048201526018602482015277115490cdcc8c4e881a5b9d985b1a59081d1bdad95b88125160421b60448201526064016104c8565b50565b600081815260046020526040902080546001600160a01b0319166001600160a01b0384169081179091558190610a7982610613565b6001600160a01b03167f8c5be1e5ebec7d5bd14f71427d1e84f3dd0314c0f7b2291e5b200ac8c7c3b92560405160405180910390a45050565b600080610abe83610613565b9050806001600160a01b0316846001600160a01b03161480610b0557506001600160a01b0380821660009081526005602090815260408083209388168352929052205460ff165b80610b295750836001600160a01b0316610b1e8461042d565b6001600160a01b0316145b949350505050565b826001600160a01b0316610b4482610613565b6001600160a01b031614610b6a5760405162461bcd60e51b81526004016104c8906116d5565b6001600160a01b038216610bcc5760405162461bcd60e51b8152602060048201526024808201527f4552433732313a207472616e7366657220746f20746865207a65726f206164646044820152637265737360e01b60648201526084016104c8565b826001600160a01b0316610bdf82610613565b6001600160a01b031614610c055760405162461bcd60e51b81526004016104c8906116d5565b600081815260046020908152604080832080546001600160a01b03199081169091556001600160a01b0387811680865260038552838620805460001901905590871680865283862080546001019055868652600290945282852080549092168417909155905184937fddf252ad1be2c89b69c2b068fc378daa952ba7f163c4a11628f55a4df523b3ef91a4505050565b6001600160a01b038216610ceb5760405162461bcd60e51b815260206004820181905260248201527f4552433732313a206d696e7420746f20746865207a65726f206164647265737360448201526064016104c8565b6000818152600260205260409020546001600160a01b031615610d505760405162461bcd60e51b815260206004820152601c60248201527f4552433732313a20746f6b656e20616c7265616479206d696e7465640000000060448201526064016104c8565b6000818152600260205260409020546001600160a01b031615610db55760405162461bcd60e51b815260206004820152601c60248201527f4552433732313a20746f6b656e20616c7265616479206d696e7465640000000060448201526064016104c8565b6001600160a01b038216600081815260036020908152604080832080546001019055848352600290915280822080546001600160a01b0319168417905551839291907fddf252ad1be2c89b69c2b068fc378daa952ba7f163c4a11628f55a4df523b3ef908290a45050565b816001600160a01b0316836001600160a01b031603610e815760405162461bcd60e51b815260206004820152601960248201527f4552433732313a20617070726f766520746f2063616c6c65720000000000000060448201526064016104c8565b6001600160a01b03838116600081815260056020908152604080832094871680845294825291829020805460ff191686151590811790915591519182527f17307eab39ab6107e8899845ad3d59bd9653f200f220920489ca2b5937696c31910160405180910390a3505050565b610ef9848484610b31565b610f0584848484610fc3565b6108e75760405162461bcd60e51b81526004016104c89061171a565b6060600680546103aa906114a8565b60606000610f3d836110c4565b600101905060008167ffffffffffffffff811115610f5d57610f5d6112cd565b6040519080825280601f01601f191660200182016040528015610f87576020820181803683370190505b5090508181016020015b600019016f181899199a1a9b1b9c1cb0b131b232b360811b600a86061a8153600a8504945084610f9157509392505050565b60006001600160a01b0384163b156110b957604051630a85bd0160e11b81526001600160a01b0385169063150b7a029061100790339089908890889060040161176c565b6020604051808303816000875af1925050508015611042575060408051601f3d908101601f1916820190925261103f918101906117a9565b60015b61109f573d808015611070576040519150601f19603f3d011682016040523d82523d6000602084013e611075565b606091505b5080516000036110975760405162461bcd60e51b81526004016104c89061171a565b805181602001fd5b6001600160e01b031916630a85bd0160e11b149050610b29565b506001949350505050565b60008072184f03e93ff9f4daa797ed6e38ed64bf6a1f0160401b83106111035772184f03e93ff9f4daa797ed6e38ed64bf6a1f0160401b830492506040015b6d04ee2d6d415b85acef8100000000831061112f576d04ee2d6d415b85acef8100000000830492506020015b662386f26fc10000831061114d57662386f26fc10000830492506010015b6305f5e1008310611165576305f5e100830492506008015b612710831061117957612710830492506004015b6064831061118b576064830492506002015b600a83106103955760010192915050565b6001600160e01b031981168114610a4157600080fd5b6000602082840312156111c457600080fd5b813561094d8161119c565b60005b838110156111ea5781810151838201526020016111d2565b50506000910152565b6000815180845261120b8160208601602086016111cf565b601f01601f19169290920160200192915050565b60208152600061094d60208301846111f3565b60006020828403121561124457600080fd5b5035919050565b80356001600160a01b038116811461126257600080fd5b919050565b6000806040838503121561127a57600080fd5b6112838361124b565b946020939093013593505050565b6000806000606084860312156112a657600080fd5b6112af8461124b565b92506112bd6020850161124b565b9150604084013590509250925092565b634e487b7160e01b600052604160045260246000fd5b600067ffffffffffffffff808411156112fe576112fe6112cd565b604051601f8501601f19908116603f01168101908282118183101715611326576113266112cd565b8160405280935085815286868601111561133f57600080fd5b858560208301376000602087830101525050509392505050565b60006020828403121561136b57600080fd5b813567ffffffffffffffff81111561138257600080fd5b8201601f8101841361139357600080fd5b610b29848235602084016112e3565b6000602082840312156113b457600080fd5b61094d8261124b565b600080604083850312156113d057600080fd5b6113d98361124b565b9150602083013580151581146113ee57600080fd5b809150509250929050565b6000806000806080858703121561140f57600080fd5b6114188561124b565b93506114266020860161124b565b925060408501359150606085013567ffffffffffffffff81111561144957600080fd5b8501601f8101871361145a57600080fd5b611469878235602084016112e3565b91505092959194509250565b6000806040838503121561148857600080fd5b6114918361124b565b915061149f6020840161124b565b90509250929050565b600181811c908216806114bc57607f821691505b6020821081036114dc57634e487b7160e01b600052602260045260246000fd5b50919050565b6020808252602d908201527f4552433732313a2063616c6c6572206973206e6f7420746f6b656e206f776e6560408201526c1c881bdc88185c1c1c9bdd9959609a1b606082015260800190565b60208082526022908201527f43616c6c6572206973206e6f7420746865206f776e6572206f72206772616e7460408201526132b960f11b606082015260800190565b601f82111561056957600081815260208120601f850160051c810160208610156115985750805b601f850160051c820191505b818110156115b7578281556001016115a4565b505050505050565b815167ffffffffffffffff8111156115d9576115d96112cd565b6115ed816115e784546114a8565b84611571565b602080601f831160018114611622576000841561160a5750858301515b600019600386901b1c1916600185901b1785556115b7565b600085815260208120601f198616915b8281101561165157888601518255948401946001909101908401611632565b508582101561166f5787850151600019600388901b60f8161c191681555b5050505050600190811b01905550565b60006001820161169f57634e487b7160e01b600052601160045260246000fd5b5060010190565b600083516116b88184602088016111cf565b8351908301906116cc8183602088016111cf565b01949350505050565b60208082526025908201527f4552433732313a207472616e736665722066726f6d20696e636f72726563742060408201526437bbb732b960d91b606082015260800190565b60208082526032908201527f4552433732313a207472616e7366657220746f206e6f6e20455243373231526560408201527131b2b4bb32b91034b6b83632b6b2b73a32b960711b606082015260800190565b6001600160a01b038581168252841660208201526040810183905260806060820181905260009061179f908301846111f3565b9695505050505050565b6000602082840312156117bb57600080fd5b815161094d8161119c56fea2646970667358221220df6e7b484f52986992aec99d91bda5adc9f71bb82855217d62e616c3c7e1a22964736f6c63430008150033a2646970667358221220383a28c78eace3325e5d010b0cf494c914e03a0414705947149be7ca83df37c264736f6c63430008150033",
  "linkReferences": {},
  "deployedLinkReferences": {}
}