{
  "_format": "hh-sol-artifact-1",
  "contractName": "Beb",
  "sourceName": "contracts/Beb.sol",
  "abi": [
    {
      "inputs": [
        {
          "internalType": "string",
          "name": "uri_",
          "type": "string"
        },
        {
          "internalType": "address",
          "name": "granter",
          "type": "address"
        }
      ],
      "stateMutability": "nonpayable",
      "type": "constructor"
    },
    {
      "anonymous": false,
      "inputs": [
        {
          "indexed": true,
          "internalType": "address",
          "name": "account",
          "type": "address"
        },
        {
          "indexed": true,
          "internalType": "address",
          "name": "operator",
          "type": "address"
        },
        {
          "indexed": false,
          "internalType": "bool",
          "name": "approved",
          "type": "bool"
        }
      ],
      "name": "ApprovalForAll",
      "type": "event"
    },
    {
      "anonymous": false,
      "inputs": [
        {
          "indexed": true,
          "internalType": "address",
          "name": "previousOwner",
          "type": "address"
        },
        {
          "indexed": true,
          "internalType": "address",
          "name": "newOwner",
          "type": "address"
        }
      ],
      "name": "OwnershipTransferred",
      "type": "event"
    },
    {
      "anonymous": false,
      "inputs": [
        {
          "indexed": true,
          "internalType": "bytes32",
          "name": "role",
          "type": "bytes32"
        },
        {
          "indexed": true,
          "internalType": "bytes32",
          "name": "previousAdminRole",
          "type": "bytes32"
        },
        {
          "indexed": true,
          "internalType": "bytes32",
          "name": "newAdminRole",
          "type": "bytes32"
        }
      ],
      "name": "RoleAdminChanged",
      "type": "event"
    },
    {
      "anonymous": false,
      "inputs": [
        {
          "indexed": true,
          "internalType": "bytes32",
          "name": "role",
          "type": "bytes32"
        },
        {
          "indexed": true,
          "internalType": "address",
          "name": "account",
          "type": "address"
        },
        {
          "indexed": true,
          "internalType": "address",
          "name": "sender",
          "type": "address"
        }
      ],
      "name": "RoleGranted",
      "type": "event"
    },
    {
      "anonymous": false,
      "inputs": [
        {
          "indexed": true,
          "internalType": "bytes32",
          "name": "role",
          "type": "bytes32"
        },
        {
          "indexed": true,
          "internalType": "address",
          "name": "account",
          "type": "address"
        },
        {
          "indexed": true,
          "internalType": "address",
          "name": "sender",
          "type": "address"
        }
      ],
      "name": "RoleRevoked",
      "type": "event"
    },
    {
      "anonymous": false,
      "inputs": [
        {
          "indexed": true,
          "internalType": "address",
          "name": "operator",
          "type": "address"
        },
        {
          "indexed": true,
          "internalType": "address",
          "name": "from",
          "type": "address"
        },
        {
          "indexed": true,
          "internalType": "address",
          "name": "to",
          "type": "address"
        },
        {
          "indexed": false,
          "internalType": "uint256[]",
          "name": "ids",
          "type": "uint256[]"
        },
        {
          "indexed": false,
          "internalType": "uint256[]",
          "name": "values",
          "type": "uint256[]"
        }
      ],
      "name": "TransferBatch",
      "type": "event"
    },
    {
      "anonymous": false,
      "inputs": [
        {
          "indexed": true,
          "internalType": "address",
          "name": "operator",
          "type": "address"
        },
        {
          "indexed": true,
          "internalType": "address",
          "name": "from",
          "type": "address"
        },
        {
          "indexed": true,
          "internalType": "address",
          "name": "to",
          "type": "address"
        },
        {
          "indexed": false,
          "internalType": "uint256",
          "name": "id",
          "type": "uint256"
        },
        {
          "indexed": false,
          "internalType": "uint256",
          "name": "value",
          "type": "uint256"
        }
      ],
      "name": "TransferSingle",
      "type": "event"
    },
    {
      "anonymous": false,
      "inputs": [
        {
          "indexed": false,
          "internalType": "string",
          "name": "value",
          "type": "string"
        },
        {
          "indexed": true,
          "internalType": "uint256",
          "name": "id",
          "type": "uint256"
        }
      ],
      "name": "URI",
      "type": "event"
    },
    {
      "inputs": [],
      "name": "DEFAULT_ADMIN_ROLE",
      "outputs": [
        {
          "internalType": "bytes32",
          "name": "",
          "type": "bytes32"
        }
      ],
      "stateMutability": "view",
      "type": "function"
    },
    {
      "inputs": [],
      "name": "GRANTER_ROLE",
      "outputs": [
        {
          "internalType": "bytes32",
          "name": "",
          "type": "bytes32"
        }
      ],
      "stateMutability": "view",
      "type": "function"
    },
    {
      "inputs": [
        {
          "internalType": "address",
          "name": "account",
          "type": "address"
        },
        {
          "internalType": "uint256",
          "name": "id",
          "type": "uint256"
        }
      ],
      "name": "balanceOf",
      "outputs": [
        {
          "internalType": "uint256",
          "name": "",
          "type": "uint256"
        }
      ],
      "stateMutability": "view",
      "type": "function"
    },
    {
      "inputs": [
        {
          "internalType": "address[]",
          "name": "accounts",
          "type": "address[]"
        },
        {
          "internalType": "uint256[]",
          "name": "ids",
          "type": "uint256[]"
        }
      ],
      "name": "balanceOfBatch",
      "outputs": [
        {
          "internalType": "uint256[]",
          "name": "",
          "type": "uint256[]"
        }
      ],
      "stateMutability": "view",
      "type": "function"
    },
    {
      "inputs": [],
      "name": "contractURI",
      "outputs": [
        {
          "internalType": "string",
          "name": "",
          "type": "string"
        }
      ],
      "stateMutability": "view",
      "type": "function"
    },
    {
      "inputs": [],
      "name": "contractUri",
      "outputs": [
        {
          "internalType": "string",
          "name": "",
          "type": "string"
        }
      ],
      "stateMutability": "view",
      "type": "function"
    },
    {
      "inputs": [
        {
          "internalType": "bytes32",
          "name": "role",
          "type": "bytes32"
        }
      ],
      "name": "getRoleAdmin",
      "outputs": [
        {
          "internalType": "bytes32",
          "name": "",
          "type": "bytes32"
        }
      ],
      "stateMutability": "view",
      "type": "function"
    },
    {
      "inputs": [
        {
          "internalType": "bytes32",
          "name": "role",
          "type": "bytes32"
        },
        {
          "internalType": "address",
          "name": "account",
          "type": "address"
        }
      ],
      "name": "grantRole",
      "outputs": [],
      "stateMutability": "nonpayable",
      "type": "function"
    },
    {
      "inputs": [
        {
          "internalType": "address",
          "name": "to",
          "type": "address"
        },
        {
          "internalType": "uint256",
          "name": "id",
          "type": "uint256"
        },
        {
          "internalType": "uint256",
          "name": "amount",
          "type": "uint256"
        },
        {
          "internalType": "bytes",
          "name": "data",
          "type": "bytes"
        }
      ],
      "name": "grantToken",
      "outputs": [],
      "stateMutability": "nonpayable",
      "type": "function"
    },
    {
      "inputs": [
        {
          "internalType": "address",
          "name": "to",
          "type": "address"
        },
        {
          "internalType": "uint256[]",
          "name": "ids",
          "type": "uint256[]"
        },
        {
          "internalType": "uint256[]",
          "name": "amounts",
          "type": "uint256[]"
        },
        {
          "internalType": "bytes",
          "name": "data",
          "type": "bytes"
        }
      ],
      "name": "grantTokens",
      "outputs": [],
      "stateMutability": "nonpayable",
      "type": "function"
    },
    {
      "inputs": [
        {
          "internalType": "bytes32",
          "name": "role",
          "type": "bytes32"
        },
        {
          "internalType": "address",
          "name": "account",
          "type": "address"
        }
      ],
      "name": "hasRole",
      "outputs": [
        {
          "internalType": "bool",
          "name": "",
          "type": "bool"
        }
      ],
      "stateMutability": "view",
      "type": "function"
    },
    {
      "inputs": [
        {
          "internalType": "address",
          "name": "account",
          "type": "address"
        },
        {
          "internalType": "address",
          "name": "operator",
          "type": "address"
        }
      ],
      "name": "isApprovedForAll",
      "outputs": [
        {
          "internalType": "bool",
          "name": "",
          "type": "bool"
        }
      ],
      "stateMutability": "view",
      "type": "function"
    },
    {
      "inputs": [],
      "name": "owner",
      "outputs": [
        {
          "internalType": "address",
          "name": "",
          "type": "address"
        }
      ],
      "stateMutability": "view",
      "type": "function"
    },
    {
      "inputs": [],
      "name": "renounceOwnership",
      "outputs": [],
      "stateMutability": "nonpayable",
      "type": "function"
    },
    {
      "inputs": [
        {
          "internalType": "bytes32",
          "name": "role",
          "type": "bytes32"
        },
        {
          "internalType": "address",
          "name": "account",
          "type": "address"
        }
      ],
      "name": "renounceRole",
      "outputs": [],
      "stateMutability": "nonpayable",
      "type": "function"
    },
    {
      "inputs": [
        {
          "internalType": "bytes32",
          "name": "role",
          "type": "bytes32"
        },
        {
          "internalType": "address",
          "name": "account",
          "type": "address"
        }
      ],
      "name": "revokeRole",
      "outputs": [],
      "stateMutability": "nonpayable",
      "type": "function"
    },
    {
      "inputs": [
        {
          "internalType": "address",
          "name": "from",
          "type": "address"
        },
        {
          "internalType": "address",
          "name": "to",
          "type": "address"
        },
        {
          "internalType": "uint256[]",
          "name": "ids",
          "type": "uint256[]"
        },
        {
          "internalType": "uint256[]",
          "name": "amounts",
          "type": "uint256[]"
        },
        {
          "internalType": "bytes",
          "name": "data",
          "type": "bytes"
        }
      ],
      "name": "safeBatchTransferFrom",
      "outputs": [],
      "stateMutability": "nonpayable",
      "type": "function"
    },
    {
      "inputs": [
        {
          "internalType": "address",
          "name": "from",
          "type": "address"
        },
        {
          "internalType": "address",
          "name": "to",
          "type": "address"
        },
        {
          "internalType": "uint256",
          "name": "id",
          "type": "uint256"
        },
        {
          "internalType": "uint256",
          "name": "amount",
          "type": "uint256"
        },
        {
          "internalType": "bytes",
          "name": "data",
          "type": "bytes"
        }
      ],
      "name": "safeTransferFrom",
      "outputs": [],
      "stateMutability": "nonpayable",
      "type": "function"
    },
    {
      "inputs": [
        {
          "internalType": "address",
          "name": "operator",
          "type": "address"
        },
        {
          "internalType": "bool",
          "name": "approved",
          "type": "bool"
        }
      ],
      "name": "setApprovalForAll",
      "outputs": [],
      "stateMutability": "nonpayable",
      "type": "function"
    },
    {
      "inputs": [
        {
          "internalType": "string",
          "name": "uri",
          "type": "string"
        }
      ],
      "name": "setContractUri",
      "outputs": [],
      "stateMutability": "nonpayable",
      "type": "function"
    },
    {
      "inputs": [
        {
          "internalType": "string",
          "name": "uri",
          "type": "string"
        }
      ],
      "name": "setTokenUri",
      "outputs": [],
      "stateMutability": "nonpayable",
      "type": "function"
    },
    {
      "inputs": [
        {
          "internalType": "bytes4",
          "name": "interfaceId",
          "type": "bytes4"
        }
      ],
      "name": "supportsInterface",
      "outputs": [
        {
          "internalType": "bool",
          "name": "",
          "type": "bool"
        }
      ],
      "stateMutability": "view",
      "type": "function"
    },
    {
      "inputs": [
        {
          "internalType": "address",
          "name": "newOwner",
          "type": "address"
        }
      ],
      "name": "transferOwnership",
      "outputs": [],
      "stateMutability": "nonpayable",
      "type": "function"
    },
    {
      "inputs": [
        {
          "internalType": "uint256",
          "name": "",
          "type": "uint256"
        }
      ],
      "name": "uri",
      "outputs": [
        {
          "internalType": "string",
          "name": "",
          "type": "string"
        }
      ],
      "stateMutability": "view",
      "type": "function"
    }
  ],
  "bytecode": "0x60806040526040518060600160405280603b815260200162004891603b913960059080519060200190620000359291906200037a565b503480156200004357600080fd5b50604051620048cc380380620048cc8339818101604052810190620000699190620004b3565b816200007b816200011d60201b60201c565b506200009c620000906200013960201b60201c565b6200014160201b60201c565b620000b16000801b336200020760201b60201c565b620000e37f2dee5dd865e09c7ce6788d674a03682994f0b44339403ca07ac129a9de4bed6a336200020760201b60201c565b620001157f2dee5dd865e09c7ce6788d674a03682994f0b44339403ca07ac129a9de4bed6a826200020760201b60201c565b5050620006cb565b8060029080519060200190620001359291906200037a565b5050565b600033905090565b6000600360009054906101000a900473ffffffffffffffffffffffffffffffffffffffff16905081600360006101000a81548173ffffffffffffffffffffffffffffffffffffffff021916908373ffffffffffffffffffffffffffffffffffffffff1602179055508173ffffffffffffffffffffffffffffffffffffffff168173ffffffffffffffffffffffffffffffffffffffff167f8be0079c531659141344cd1fd0a4f28419497f9722a3daafe3b4186f6b6457e060405160405180910390a35050565b6200021982826200021d60201b60201c565b5050565b6200022f82826200030f60201b60201c565b6200030b5760016004600084815260200190815260200160002060000160008373ffffffffffffffffffffffffffffffffffffffff1673ffffffffffffffffffffffffffffffffffffffff16815260200190815260200160002060006101000a81548160ff021916908315150217905550620002b06200013960201b60201c565b73ffffffffffffffffffffffffffffffffffffffff168173ffffffffffffffffffffffffffffffffffffffff16837f2f8788117e7eff1d82e926ec794901d17c78024a50270940304540a733656f0d60405160405180910390a45b5050565b60006004600084815260200190815260200160002060000160008373ffffffffffffffffffffffffffffffffffffffff1673ffffffffffffffffffffffffffffffffffffffff16815260200190815260200160002060009054906101000a900460ff16905092915050565b8280546200038890620005d6565b90600052602060002090601f016020900481019282620003ac5760008555620003f8565b82601f10620003c757805160ff1916838001178555620003f8565b82800160010185558215620003f8579182015b82811115620003f7578251825591602001919060010190620003da565b5b5090506200040791906200040b565b5090565b5b80821115620004265760008160009055506001016200040c565b5090565b6000620004416200043b8462000536565b6200050d565b9050828152602081018484840111156200045a57600080fd5b62000467848285620005a0565b509392505050565b6000815190506200048081620006b1565b92915050565b600082601f8301126200049857600080fd5b8151620004aa8482602086016200042a565b91505092915050565b60008060408385031215620004c757600080fd5b600083015167ffffffffffffffff811115620004e257600080fd5b620004f08582860162000486565b925050602062000503858286016200046f565b9150509250929050565b6000620005196200052c565b90506200052782826200060c565b919050565b6000604051905090565b600067ffffffffffffffff82111562000554576200055362000671565b5b6200055f82620006a0565b9050602081019050919050565b6000620005798262000580565b9050919050565b600073ffffffffffffffffffffffffffffffffffffffff82169050919050565b60005b83811015620005c0578082015181840152602081019050620005a3565b83811115620005d0576000848401525b50505050565b60006002820490506001821680620005ef57607f821691505b6020821081141562000606576200060562000642565b5b50919050565b6200061782620006a0565b810181811067ffffffffffffffff8211171562000639576200063862000671565b5b80604052505050565b7f4e487b7100000000000000000000000000000000000000000000000000000000600052602260045260246000fd5b7f4e487b7100000000000000000000000000000000000000000000000000000000600052604160045260246000fd5b6000601f19601f8301169050919050565b620006bc816200056c565b8114620006c857600080fd5b50565b6141b680620006db6000396000f3fe608060405234801561001057600080fd5b50600436106101575760003560e01c806391d14854116100c3578063d547741f1161007c578063d547741f146103c0578063e8a3d485146103dc578063e985e9c5146103fa578063f242432a1461042a578063f2fde38b14610446578063f94c0a111461046257610157565b806391d1485414610300578063a217fddf14610330578063a22cb4651461034e578063bcfd95581461036a578063c0e24d5e14610386578063ccb4807b146103a457610157565b80632eb2c2d6116101155780632eb2c2d6146102545780632f2ff15d1461027057806336568abe1461028c5780634e1273f4146102a8578063715018a6146102d85780638da5cb5b146102e257610157565b8062fdd58e1461015c57806301ffc9a71461018c5780630675b7c6146101bc5780630e89341c146101d85780632458e97714610208578063248a9ca314610224575b600080fd5b61017660048036038101906101719190612d0f565b610480565b60405161018391906136f5565b60405180910390f35b6101a660048036038101906101a19190612e97565b610549565b6040516101b3919061349d565b60405180910390f35b6101d660048036038101906101d19190612ee9565b61055b565b005b6101f260048036038101906101ed9190612f2a565b61057d565b6040516101ff91906134d3565b60405180910390f35b610222600480360381019061021d9190612c28565b610611565b005b61023e60048036038101906102399190612e32565b610656565b60405161024b91906134b8565b60405180910390f35b61026e60048036038101906102699190612ada565b610676565b005b61028a60048036038101906102859190612e5b565b610717565b005b6102a660048036038101906102a19190612e5b565b610740565b005b6102c260048036038101906102bd9190612dc6565b6107c3565b6040516102cf9190613444565b60405180910390f35b6102e0610974565b005b6102ea6109fc565b6040516102f79190613367565b60405180910390f35b61031a60048036038101906103159190612e5b565b610a26565b604051610327919061349d565b60405180910390f35b610338610a91565b60405161034591906134b8565b60405180910390f35b61036860048036038101906103639190612cd3565b610a98565b005b610384600480360381019061037f9190612d4b565b610aae565b005b61038e610af3565b60405161039b91906134d3565b60405180910390f35b6103be60048036038101906103b99190612ee9565b610b81565b005b6103da60048036038101906103d59190612e5b565b610bb1565b005b6103e4610bda565b6040516103f191906134d3565b60405180910390f35b610414600480360381019061040f9190612a9e565b610c6c565b604051610421919061349d565b60405180910390f35b610444600480360381019061043f9190612b99565b610d00565b005b610460600480360381019061045b9190612a75565b610da1565b005b61046a610e99565b60405161047791906134b8565b60405180910390f35b60008073ffffffffffffffffffffffffffffffffffffffff168373ffffffffffffffffffffffffffffffffffffffff1614156104f1576040517f08c379a00000000000000000000000000000000000000000000000000000000081526004016104e890613575565b60405180910390fd5b60008083815260200190815260200160002060008473ffffffffffffffffffffffffffffffffffffffff1673ffffffffffffffffffffffffffffffffffffffff16815260200190815260200160002054905092915050565b600061055482610ebd565b9050919050565b6000801b6105708161056b610f37565b610f3f565b61057982610fdc565b5050565b60606002805461058c90613a2e565b80601f01602080910402602001604051908101604052809291908181526020018280546105b890613a2e565b80156106055780601f106105da57610100808354040283529160200191610605565b820191906000526020600020905b8154815290600101906020018083116105e857829003601f168201915b50505050509050919050565b7f2dee5dd865e09c7ce6788d674a03682994f0b44339403ca07ac129a9de4bed6a6106438161063e610f37565b610f3f565b61064f85858585610ff6565b5050505050565b600060046000838152602001908152602001600020600101549050919050565b61067e610f37565b73ffffffffffffffffffffffffffffffffffffffff168573ffffffffffffffffffffffffffffffffffffffff1614806106c457506106c3856106be610f37565b610c6c565b5b610703576040517f08c379a00000000000000000000000000000000000000000000000000000000081526004016106fa906135f5565b60405180910390fd5b6107108585858585611260565b5050505050565b61072082610656565b6107318161072c610f37565b610f3f565b61073b83836115c0565b505050565b610748610f37565b73ffffffffffffffffffffffffffffffffffffffff168173ffffffffffffffffffffffffffffffffffffffff16146107b5576040517f08c379a00000000000000000000000000000000000000000000000000000000081526004016107ac906136d5565b60405180910390fd5b6107bf82826116a1565b5050565b60608151835114610809576040517f08c379a000000000000000000000000000000000000000000000000000000000815260040161080090613675565b60405180910390fd5b6000835167ffffffffffffffff81111561084c577f4e487b7100000000000000000000000000000000000000000000000000000000600052604160045260246000fd5b60405190808252806020026020018201604052801561087a5781602001602082028036833780820191505090505b50905060005b8451811015610969576109138582815181106108c5577f4e487b7100000000000000000000000000000000000000000000000000000000600052603260045260246000fd5b6020026020010151858381518110610906577f4e487b7100000000000000000000000000000000000000000000000000000000600052603260045260246000fd5b6020026020010151610480565b82828151811061094c577f4e487b7100000000000000000000000000000000000000000000000000000000600052603260045260246000fd5b6020026020010181815250508061096290613a91565b9050610880565b508091505092915050565b61097c610f37565b73ffffffffffffffffffffffffffffffffffffffff1661099a6109fc565b73ffffffffffffffffffffffffffffffffffffffff16146109f0576040517f08c379a00000000000000000000000000000000000000000000000000000000081526004016109e790613635565b60405180910390fd5b6109fa6000611783565b565b6000600360009054906101000a900473ffffffffffffffffffffffffffffffffffffffff16905090565b60006004600084815260200190815260200160002060000160008373ffffffffffffffffffffffffffffffffffffffff1673ffffffffffffffffffffffffffffffffffffffff16815260200190815260200160002060009054906101000a900460ff16905092915050565b6000801b81565b610aaa610aa3610f37565b8383611849565b5050565b7f2dee5dd865e09c7ce6788d674a03682994f0b44339403ca07ac129a9de4bed6a610ae081610adb610f37565b610f3f565b610aec858585856119b6565b5050505050565b60058054610b0090613a2e565b80601f0160208091040260200160405190810160405280929190818152602001828054610b2c90613a2e565b8015610b795780601f10610b4e57610100808354040283529160200191610b79565b820191906000526020600020905b815481529060010190602001808311610b5c57829003601f168201915b505050505081565b6000801b610b9681610b91610f37565b610f3f565b8160059080519060200190610bac929190612758565b505050565b610bba82610656565b610bcb81610bc6610f37565b610f3f565b610bd583836116a1565b505050565b606060058054610be990613a2e565b80601f0160208091040260200160405190810160405280929190818152602001828054610c1590613a2e565b8015610c625780601f10610c3757610100808354040283529160200191610c62565b820191906000526020600020905b815481529060010190602001808311610c4557829003601f168201915b5050505050905090565b6000600160008473ffffffffffffffffffffffffffffffffffffffff1673ffffffffffffffffffffffffffffffffffffffff16815260200190815260200160002060008373ffffffffffffffffffffffffffffffffffffffff1673ffffffffffffffffffffffffffffffffffffffff16815260200190815260200160002060009054906101000a900460ff16905092915050565b610d08610f37565b73ffffffffffffffffffffffffffffffffffffffff168573ffffffffffffffffffffffffffffffffffffffff161480610d4e5750610d4d85610d48610f37565b610c6c565b5b610d8d576040517f08c379a0000000000000000000000000000000000000000000000000000000008152600401610d84906135b5565b60405180910390fd5b610d9a8585858585611b4c565b5050505050565b610da9610f37565b73ffffffffffffffffffffffffffffffffffffffff16610dc76109fc565b73ffffffffffffffffffffffffffffffffffffffff1614610e1d576040517f08c379a0000000000000000000000000000000000000000000000000000000008152600401610e1490613635565b60405180910390fd5b600073ffffffffffffffffffffffffffffffffffffffff168173ffffffffffffffffffffffffffffffffffffffff161415610e8d576040517f08c379a0000000000000000000000000000000000000000000000000000000008152600401610e8490613595565b60405180910390fd5b610e9681611783565b50565b7f2dee5dd865e09c7ce6788d674a03682994f0b44339403ca07ac129a9de4bed6a81565b60007f7965db0b000000000000000000000000000000000000000000000000000000007bffffffffffffffffffffffffffffffffffffffffffffffffffffffff1916827bffffffffffffffffffffffffffffffffffffffffffffffffffffffff19161480610f305750610f2f82611dce565b5b9050919050565b600033905090565b610f498282610a26565b610fd857610f6e8173ffffffffffffffffffffffffffffffffffffffff166014611eb0565b610f7c8360001c6020611eb0565b604051602001610f8d92919061332d565b6040516020818303038152906040526040517f08c379a0000000000000000000000000000000000000000000000000000000008152600401610fcf91906134d3565b60405180910390fd5b5050565b8060029080519060200190610ff2929190612758565b5050565b600073ffffffffffffffffffffffffffffffffffffffff168473ffffffffffffffffffffffffffffffffffffffff161415611066576040517f08c379a000000000000000000000000000000000000000000000000000000000815260040161105d906136b5565b60405180910390fd5b81518351146110aa576040517f08c379a00000000000000000000000000000000000000000000000000000000081526004016110a190613695565b60405180910390fd5b60006110b4610f37565b90506110c5816000878787876121aa565b60005b84518110156111ca5783818151811061110a577f4e487b7100000000000000000000000000000000000000000000000000000000600052603260045260246000fd5b602002602001015160008087848151811061114e577f4e487b7100000000000000000000000000000000000000000000000000000000600052603260045260246000fd5b6020026020010151815260200190815260200160002060008873ffffffffffffffffffffffffffffffffffffffff1673ffffffffffffffffffffffffffffffffffffffff16815260200190815260200160002060008282546111b09190613894565b9250508190555080806111c290613a91565b9150506110c8565b508473ffffffffffffffffffffffffffffffffffffffff16600073ffffffffffffffffffffffffffffffffffffffff168273ffffffffffffffffffffffffffffffffffffffff167f4a39dc06d4c0dbc64b70af90fd698a233a518aa5d07e595d983b8c0526c8f7fb8787604051611242929190613466565b60405180910390a46112598160008787878761222f565b5050505050565b81518351146112a4576040517f08c379a000000000000000000000000000000000000000000000000000000000815260040161129b90613695565b60405180910390fd5b600073ffffffffffffffffffffffffffffffffffffffff168473ffffffffffffffffffffffffffffffffffffffff161415611314576040517f08c379a000000000000000000000000000000000000000000000000000000000815260040161130b906135d5565b60405180910390fd5b600061131e610f37565b905061132e8187878787876121aa565b60005b845181101561152b576000858281518110611375577f4e487b7100000000000000000000000000000000000000000000000000000000600052603260045260246000fd5b6020026020010151905060008583815181106113ba577f4e487b7100000000000000000000000000000000000000000000000000000000600052603260045260246000fd5b60200260200101519050600080600084815260200190815260200160002060008b73ffffffffffffffffffffffffffffffffffffffff1673ffffffffffffffffffffffffffffffffffffffff1681526020019081526020016000205490508181101561145b576040517f08c379a000000000000000000000000000000000000000000000000000000000815260040161145290613615565b60405180910390fd5b81810360008085815260200190815260200160002060008c73ffffffffffffffffffffffffffffffffffffffff1673ffffffffffffffffffffffffffffffffffffffff168152602001908152602001600020819055508160008085815260200190815260200160002060008b73ffffffffffffffffffffffffffffffffffffffff1673ffffffffffffffffffffffffffffffffffffffff16815260200190815260200160002060008282546115109190613894565b925050819055505050508061152490613a91565b9050611331565b508473ffffffffffffffffffffffffffffffffffffffff168673ffffffffffffffffffffffffffffffffffffffff168273ffffffffffffffffffffffffffffffffffffffff167f4a39dc06d4c0dbc64b70af90fd698a233a518aa5d07e595d983b8c0526c8f7fb87876040516115a2929190613466565b60405180910390a46115b881878787878761222f565b505050505050565b6115ca8282610a26565b61169d5760016004600084815260200190815260200160002060000160008373ffffffffffffffffffffffffffffffffffffffff1673ffffffffffffffffffffffffffffffffffffffff16815260200190815260200160002060006101000a81548160ff021916908315150217905550611642610f37565b73ffffffffffffffffffffffffffffffffffffffff168173ffffffffffffffffffffffffffffffffffffffff16837f2f8788117e7eff1d82e926ec794901d17c78024a50270940304540a733656f0d60405160405180910390a45b5050565b6116ab8282610a26565b1561177f5760006004600084815260200190815260200160002060000160008373ffffffffffffffffffffffffffffffffffffffff1673ffffffffffffffffffffffffffffffffffffffff16815260200190815260200160002060006101000a81548160ff021916908315150217905550611724610f37565b73ffffffffffffffffffffffffffffffffffffffff168173ffffffffffffffffffffffffffffffffffffffff16837ff6391f5c32d9c69d2a47ea670b442974b53935d1edc7fd64eb21e047a839171b60405160405180910390a45b5050565b6000600360009054906101000a900473ffffffffffffffffffffffffffffffffffffffff16905081600360006101000a81548173ffffffffffffffffffffffffffffffffffffffff021916908373ffffffffffffffffffffffffffffffffffffffff1602179055508173ffffffffffffffffffffffffffffffffffffffff168173ffffffffffffffffffffffffffffffffffffffff167f8be0079c531659141344cd1fd0a4f28419497f9722a3daafe3b4186f6b6457e060405160405180910390a35050565b8173ffffffffffffffffffffffffffffffffffffffff168373ffffffffffffffffffffffffffffffffffffffff1614156118b8576040517f08c379a00000000000000000000000000000000000000000000000000000000081526004016118af90613655565b60405180910390fd5b80600160008573ffffffffffffffffffffffffffffffffffffffff1673ffffffffffffffffffffffffffffffffffffffff16815260200190815260200160002060008473ffffffffffffffffffffffffffffffffffffffff1673ffffffffffffffffffffffffffffffffffffffff16815260200190815260200160002060006101000a81548160ff0219169083151502179055508173ffffffffffffffffffffffffffffffffffffffff168373ffffffffffffffffffffffffffffffffffffffff167f17307eab39ab6107e8899845ad3d59bd9653f200f220920489ca2b5937696c31836040516119a9919061349d565b60405180910390a3505050565b600073ffffffffffffffffffffffffffffffffffffffff168473ffffffffffffffffffffffffffffffffffffffff161415611a26576040517f08c379a0000000000000000000000000000000000000000000000000000000008152600401611a1d906136b5565b60405180910390fd5b6000611a30610f37565b9050611a5181600087611a4288612416565b611a4b88612416565b876121aa565b8260008086815260200190815260200160002060008773ffffffffffffffffffffffffffffffffffffffff1673ffffffffffffffffffffffffffffffffffffffff1681526020019081526020016000206000828254611ab09190613894565b925050819055508473ffffffffffffffffffffffffffffffffffffffff16600073ffffffffffffffffffffffffffffffffffffffff168273ffffffffffffffffffffffffffffffffffffffff167fc3d58168c5ae7397731d063d5bbf3d657854427343f4c083240f7aacaa2d0f628787604051611b2e929190613710565b60405180910390a4611b45816000878787876124dc565b5050505050565b600073ffffffffffffffffffffffffffffffffffffffff168473ffffffffffffffffffffffffffffffffffffffff161415611bbc576040517f08c379a0000000000000000000000000000000000000000000000000000000008152600401611bb3906135d5565b60405180910390fd5b6000611bc6610f37565b9050611be6818787611bd788612416565b611be088612416565b876121aa565b600080600086815260200190815260200160002060008873ffffffffffffffffffffffffffffffffffffffff1673ffffffffffffffffffffffffffffffffffffffff16815260200190815260200160002054905083811015611c7d576040517f08c379a0000000000000000000000000000000000000000000000000000000008152600401611c7490613615565b60405180910390fd5b83810360008087815260200190815260200160002060008973ffffffffffffffffffffffffffffffffffffffff1673ffffffffffffffffffffffffffffffffffffffff168152602001908152602001600020819055508360008087815260200190815260200160002060008873ffffffffffffffffffffffffffffffffffffffff1673ffffffffffffffffffffffffffffffffffffffff1681526020019081526020016000206000828254611d329190613894565b925050819055508573ffffffffffffffffffffffffffffffffffffffff168773ffffffffffffffffffffffffffffffffffffffff168373ffffffffffffffffffffffffffffffffffffffff167fc3d58168c5ae7397731d063d5bbf3d657854427343f4c083240f7aacaa2d0f628888604051611daf929190613710565b60405180910390a4611dc58288888888886124dc565b50505050505050565b60007fd9b67a26000000000000000000000000000000000000000000000000000000007bffffffffffffffffffffffffffffffffffffffffffffffffffffffff1916827bffffffffffffffffffffffffffffffffffffffffffffffffffffffff19161480611e9957507f0e89341c000000000000000000000000000000000000000000000000000000007bffffffffffffffffffffffffffffffffffffffffffffffffffffffff1916827bffffffffffffffffffffffffffffffffffffffffffffffffffffffff1916145b80611ea95750611ea8826126c3565b5b9050919050565b606060006002836002611ec391906138ea565b611ecd9190613894565b67ffffffffffffffff811115611f0c577f4e487b7100000000000000000000000000000000000000000000000000000000600052604160045260246000fd5b6040519080825280601f01601f191660200182016040528015611f3e5781602001600182028036833780820191505090505b5090507f300000000000000000000000000000000000000000000000000000000000000081600081518110611f9c577f4e487b7100000000000000000000000000000000000000000000000000000000600052603260045260246000fd5b60200101907effffffffffffffffffffffffffffffffffffffffffffffffffffffffffffff1916908160001a9053507f780000000000000000000000000000000000000000000000000000000000000081600181518110612026577f4e487b7100000000000000000000000000000000000000000000000000000000600052603260045260246000fd5b60200101907effffffffffffffffffffffffffffffffffffffffffffffffffffffffffffff1916908160001a9053506000600184600261206691906138ea565b6120709190613894565b90505b600181111561215c577f3031323334353637383961626364656600000000000000000000000000000000600f8616601081106120d8577f4e487b7100000000000000000000000000000000000000000000000000000000600052603260045260246000fd5b1a60f81b828281518110612115577f4e487b7100000000000000000000000000000000000000000000000000000000600052603260045260246000fd5b60200101907effffffffffffffffffffffffffffffffffffffffffffffffffffffffffffff1916908160001a905350600485901c94508061215590613a04565b9050612073565b50600084146121a0576040517f08c379a000000000000000000000000000000000000000000000000000000000815260040161219790613515565b60405180910390fd5b8091505092915050565b6121b886868686868661272d565b600073ffffffffffffffffffffffffffffffffffffffff168573ffffffffffffffffffffffffffffffffffffffff1614612227576040517f08c379a000000000000000000000000000000000000000000000000000000000815260040161221e90613555565b60405180910390fd5b505050505050565b61224e8473ffffffffffffffffffffffffffffffffffffffff16612735565b1561240e578373ffffffffffffffffffffffffffffffffffffffff1663bc197c8187878686866040518663ffffffff1660e01b8152600401612294959493929190613382565b602060405180830381600087803b1580156122ae57600080fd5b505af19250505080156122df57506040513d601f19601f820116820180604052508101906122dc9190612ec0565b60015b612385576122eb613b67565b806308c379a014156123485750612300614077565b8061230b575061234a565b806040517f08c379a000000000000000000000000000000000000000000000000000000000815260040161233f91906134d3565b60405180910390fd5b505b6040517f08c379a000000000000000000000000000000000000000000000000000000000815260040161237c906134f5565b60405180910390fd5b63bc197c8160e01b7bffffffffffffffffffffffffffffffffffffffffffffffffffffffff1916817bffffffffffffffffffffffffffffffffffffffffffffffffffffffff19161461240c576040517f08c379a000000000000000000000000000000000000000000000000000000000815260040161240390613535565b60405180910390fd5b505b505050505050565b60606000600167ffffffffffffffff81111561245b577f4e487b7100000000000000000000000000000000000000000000000000000000600052604160045260246000fd5b6040519080825280602002602001820160405280156124895781602001602082028036833780820191505090505b50905082816000815181106124c7577f4e487b7100000000000000000000000000000000000000000000000000000000600052603260045260246000fd5b60200260200101818152505080915050919050565b6124fb8473ffffffffffffffffffffffffffffffffffffffff16612735565b156126bb578373ffffffffffffffffffffffffffffffffffffffff1663f23a6e6187878686866040518663ffffffff1660e01b81526004016125419594939291906133ea565b602060405180830381600087803b15801561255b57600080fd5b505af192505050801561258c57506040513d601f19601f820116820180604052508101906125899190612ec0565b60015b61263257612598613b67565b806308c379a014156125f557506125ad614077565b806125b857506125f7565b806040517f08c379a00000000000000000000000000000000000000000000000000000000081526004016125ec91906134d3565b60405180910390fd5b505b6040517f08c379a0000000000000000000000000000000000000000000000000000000008152600401612629906134f5565b60405180910390fd5b63f23a6e6160e01b7bffffffffffffffffffffffffffffffffffffffffffffffffffffffff1916817bffffffffffffffffffffffffffffffffffffffffffffffffffffffff1916146126b9576040517f08c379a00000000000000000000000000000000000000000000000000000000081526004016126b090613535565b60405180910390fd5b505b505050505050565b60007f01ffc9a7000000000000000000000000000000000000000000000000000000007bffffffffffffffffffffffffffffffffffffffffffffffffffffffff1916827bffffffffffffffffffffffffffffffffffffffffffffffffffffffff1916149050919050565b505050505050565b6000808273ffffffffffffffffffffffffffffffffffffffff163b119050919050565b82805461276490613a2e565b90600052602060002090601f01602090048101928261278657600085556127cd565b82601f1061279f57805160ff19168380011785556127cd565b828001600101855582156127cd579182015b828111156127cc5782518255916020019190600101906127b1565b5b5090506127da91906127de565b5090565b5b808211156127f75760008160009055506001016127df565b5090565b600061280e6128098461375e565b613739565b9050808382526020820190508285602086028201111561282d57600080fd5b60005b8581101561285d5781612843888261294f565b845260208401935060208301925050600181019050612830565b5050509392505050565b600061287a6128758461378a565b613739565b9050808382526020820190508285602086028201111561289957600080fd5b60005b858110156128c957816128af8882612a60565b84526020840193506020830192505060018101905061289c565b5050509392505050565b60006128e66128e1846137b6565b613739565b9050828152602081018484840111156128fe57600080fd5b6129098482856139c2565b509392505050565b600061292461291f846137e7565b613739565b90508281526020810184848401111561293c57600080fd5b6129478482856139c2565b509392505050565b60008135905061295e8161410d565b92915050565b600082601f83011261297557600080fd5b81356129858482602086016127fb565b91505092915050565b600082601f83011261299f57600080fd5b81356129af848260208601612867565b91505092915050565b6000813590506129c781614124565b92915050565b6000813590506129dc8161413b565b92915050565b6000813590506129f181614152565b92915050565b600081519050612a0681614152565b92915050565b600082601f830112612a1d57600080fd5b8135612a2d8482602086016128d3565b91505092915050565b600082601f830112612a4757600080fd5b8135612a57848260208601612911565b91505092915050565b600081359050612a6f81614169565b92915050565b600060208284031215612a8757600080fd5b6000612a958482850161294f565b91505092915050565b60008060408385031215612ab157600080fd5b6000612abf8582860161294f565b9250506020612ad08582860161294f565b9150509250929050565b600080600080600060a08688031215612af257600080fd5b6000612b008882890161294f565b9550506020612b118882890161294f565b945050604086013567ffffffffffffffff811115612b2e57600080fd5b612b3a8882890161298e565b935050606086013567ffffffffffffffff811115612b5757600080fd5b612b638882890161298e565b925050608086013567ffffffffffffffff811115612b8057600080fd5b612b8c88828901612a0c565b9150509295509295909350565b600080600080600060a08688031215612bb157600080fd5b6000612bbf8882890161294f565b9550506020612bd08882890161294f565b9450506040612be188828901612a60565b9350506060612bf288828901612a60565b925050608086013567ffffffffffffffff811115612c0f57600080fd5b612c1b88828901612a0c565b9150509295509295909350565b60008060008060808587031215612c3e57600080fd5b6000612c4c8782880161294f565b945050602085013567ffffffffffffffff811115612c6957600080fd5b612c758782880161298e565b935050604085013567ffffffffffffffff811115612c9257600080fd5b612c9e8782880161298e565b925050606085013567ffffffffffffffff811115612cbb57600080fd5b612cc787828801612a0c565b91505092959194509250565b60008060408385031215612ce657600080fd5b6000612cf48582860161294f565b9250506020612d05858286016129b8565b9150509250929050565b60008060408385031215612d2257600080fd5b6000612d308582860161294f565b9250506020612d4185828601612a60565b9150509250929050565b60008060008060808587031215612d6157600080fd5b6000612d6f8782880161294f565b9450506020612d8087828801612a60565b9350506040612d9187828801612a60565b925050606085013567ffffffffffffffff811115612dae57600080fd5b612dba87828801612a0c565b91505092959194509250565b60008060408385031215612dd957600080fd5b600083013567ffffffffffffffff811115612df357600080fd5b612dff85828601612964565b925050602083013567ffffffffffffffff811115612e1c57600080fd5b612e288582860161298e565b9150509250929050565b600060208284031215612e4457600080fd5b6000612e52848285016129cd565b91505092915050565b60008060408385031215612e6e57600080fd5b6000612e7c858286016129cd565b9250506020612e8d8582860161294f565b9150509250929050565b600060208284031215612ea957600080fd5b6000612eb7848285016129e2565b91505092915050565b600060208284031215612ed257600080fd5b6000612ee0848285016129f7565b91505092915050565b600060208284031215612efb57600080fd5b600082013567ffffffffffffffff811115612f1557600080fd5b612f2184828501612a36565b91505092915050565b600060208284031215612f3c57600080fd5b6000612f4a84828501612a60565b91505092915050565b6000612f5f838361330f565b60208301905092915050565b612f7481613944565b82525050565b6000612f8582613828565b612f8f8185613856565b9350612f9a83613818565b8060005b83811015612fcb578151612fb28882612f53565b9750612fbd83613849565b925050600181019050612f9e565b5085935050505092915050565b612fe181613956565b82525050565b612ff081613962565b82525050565b600061300182613833565b61300b8185613867565b935061301b8185602086016139d1565b61302481613b89565b840191505092915050565b600061303a8261383e565b6130448185613878565b93506130548185602086016139d1565b61305d81613b89565b840191505092915050565b60006130738261383e565b61307d8185613889565b935061308d8185602086016139d1565b80840191505092915050565b60006130a6603483613878565b91506130b182613ba7565b604082019050919050565b60006130c9602083613878565b91506130d482613bf6565b602082019050919050565b60006130ec602883613878565b91506130f782613c1f565b604082019050919050565b600061310f602083613878565b915061311a82613c6e565b602082019050919050565b6000613132602b83613878565b915061313d82613c97565b604082019050919050565b6000613155602683613878565b915061316082613ce6565b604082019050919050565b6000613178602983613878565b915061318382613d35565b604082019050919050565b600061319b602583613878565b91506131a682613d84565b604082019050919050565b60006131be603283613878565b91506131c982613dd3565b604082019050919050565b60006131e1602a83613878565b91506131ec82613e22565b604082019050919050565b6000613204602083613878565b915061320f82613e71565b602082019050919050565b6000613227601783613889565b915061323282613e9a565b601782019050919050565b600061324a602983613878565b915061325582613ec3565b604082019050919050565b600061326d602983613878565b915061327882613f12565b604082019050919050565b6000613290602883613878565b915061329b82613f61565b604082019050919050565b60006132b3602183613878565b91506132be82613fb0565b604082019050919050565b60006132d6601183613889565b91506132e182613fff565b601182019050919050565b60006132f9602f83613878565b915061330482614028565b604082019050919050565b613318816139b8565b82525050565b613327816139b8565b82525050565b60006133388261321a565b91506133448285613068565b915061334f826132c9565b915061335b8284613068565b91508190509392505050565b600060208201905061337c6000830184612f6b565b92915050565b600060a0820190506133976000830188612f6b565b6133a46020830187612f6b565b81810360408301526133b68186612f7a565b905081810360608301526133ca8185612f7a565b905081810360808301526133de8184612ff6565b90509695505050505050565b600060a0820190506133ff6000830188612f6b565b61340c6020830187612f6b565b613419604083018661331e565b613426606083018561331e565b81810360808301526134388184612ff6565b90509695505050505050565b6000602082019050818103600083015261345e8184612f7a565b905092915050565b600060408201905081810360008301526134808185612f7a565b905081810360208301526134948184612f7a565b90509392505050565b60006020820190506134b26000830184612fd8565b92915050565b60006020820190506134cd6000830184612fe7565b92915050565b600060208201905081810360008301526134ed818461302f565b905092915050565b6000602082019050818103600083015261350e81613099565b9050919050565b6000602082019050818103600083015261352e816130bc565b9050919050565b6000602082019050818103600083015261354e816130df565b9050919050565b6000602082019050818103600083015261356e81613102565b9050919050565b6000602082019050818103600083015261358e81613125565b9050919050565b600060208201905081810360008301526135ae81613148565b9050919050565b600060208201905081810360008301526135ce8161316b565b9050919050565b600060208201905081810360008301526135ee8161318e565b9050919050565b6000602082019050818103600083015261360e816131b1565b9050919050565b6000602082019050818103600083015261362e816131d4565b9050919050565b6000602082019050818103600083015261364e816131f7565b9050919050565b6000602082019050818103600083015261366e8161323d565b9050919050565b6000602082019050818103600083015261368e81613260565b9050919050565b600060208201905081810360008301526136ae81613283565b9050919050565b600060208201905081810360008301526136ce816132a6565b9050919050565b600060208201905081810360008301526136ee816132ec565b9050919050565b600060208201905061370a600083018461331e565b92915050565b6000604082019050613725600083018561331e565b613732602083018461331e565b9392505050565b6000613743613754565b905061374f8282613a60565b919050565b6000604051905090565b600067ffffffffffffffff82111561377957613778613b38565b5b602082029050602081019050919050565b600067ffffffffffffffff8211156137a5576137a4613b38565b5b602082029050602081019050919050565b600067ffffffffffffffff8211156137d1576137d0613b38565b5b6137da82613b89565b9050602081019050919050565b600067ffffffffffffffff82111561380257613801613b38565b5b61380b82613b89565b9050602081019050919050565b6000819050602082019050919050565b600081519050919050565b600081519050919050565b600081519050919050565b6000602082019050919050565b600082825260208201905092915050565b600082825260208201905092915050565b600082825260208201905092915050565b600081905092915050565b600061389f826139b8565b91506138aa836139b8565b9250827fffffffffffffffffffffffffffffffffffffffffffffffffffffffffffffffff038211156138df576138de613ada565b5b828201905092915050565b60006138f5826139b8565b9150613900836139b8565b9250817fffffffffffffffffffffffffffffffffffffffffffffffffffffffffffffffff048311821515161561393957613938613ada565b5b828202905092915050565b600061394f82613998565b9050919050565b60008115159050919050565b6000819050919050565b60007fffffffff0000000000000000000000000000000000000000000000000000000082169050919050565b600073ffffffffffffffffffffffffffffffffffffffff82169050919050565b6000819050919050565b82818337600083830152505050565b60005b838110156139ef5780820151818401526020810190506139d4565b838111156139fe576000848401525b50505050565b6000613a0f826139b8565b91506000821415613a2357613a22613ada565b5b600182039050919050565b60006002820490506001821680613a4657607f821691505b60208210811415613a5a57613a59613b09565b5b50919050565b613a6982613b89565b810181811067ffffffffffffffff82111715613a8857613a87613b38565b5b80604052505050565b6000613a9c826139b8565b91507fffffffffffffffffffffffffffffffffffffffffffffffffffffffffffffffff821415613acf57613ace613ada565b5b600182019050919050565b7f4e487b7100000000000000000000000000000000000000000000000000000000600052601160045260246000fd5b7f4e487b7100000000000000000000000000000000000000000000000000000000600052602260045260246000fd5b7f4e487b7100000000000000000000000000000000000000000000000000000000600052604160045260246000fd5b600060033d1115613b865760046000803e613b83600051613b9a565b90505b90565b6000601f19601f8301169050919050565b60008160e01c9050919050565b7f455243313135353a207472616e7366657220746f206e6f6e204552433131353560008201527f526563656976657220696d706c656d656e746572000000000000000000000000602082015250565b7f537472696e67733a20686578206c656e67746820696e73756666696369656e74600082015250565b7f455243313135353a204552433131353552656365697665722072656a6563746560008201527f6420746f6b656e73000000000000000000000000000000000000000000000000602082015250565b7f4245423a20736f756c626f756e642c206e6f6e2d7472616e7366657261626c65600082015250565b7f455243313135353a2062616c616e636520717565727920666f7220746865207a60008201527f65726f2061646472657373000000000000000000000000000000000000000000602082015250565b7f4f776e61626c653a206e6577206f776e657220697320746865207a65726f206160008201527f6464726573730000000000000000000000000000000000000000000000000000602082015250565b7f455243313135353a2063616c6c6572206973206e6f74206f776e6572206e6f7260008201527f20617070726f7665640000000000000000000000000000000000000000000000602082015250565b7f455243313135353a207472616e7366657220746f20746865207a65726f20616460008201527f6472657373000000000000000000000000000000000000000000000000000000602082015250565b7f455243313135353a207472616e736665722063616c6c6572206973206e6f742060008201527f6f776e6572206e6f7220617070726f7665640000000000000000000000000000602082015250565b7f455243313135353a20696e73756666696369656e742062616c616e636520666f60008201527f72207472616e7366657200000000000000000000000000000000000000000000602082015250565b7f4f776e61626c653a2063616c6c6572206973206e6f7420746865206f776e6572600082015250565b7f416363657373436f6e74726f6c3a206163636f756e7420000000000000000000600082015250565b7f455243313135353a2073657474696e6720617070726f76616c2073746174757360008201527f20666f722073656c660000000000000000000000000000000000000000000000602082015250565b7f455243313135353a206163636f756e747320616e6420696473206c656e67746860008201527f206d69736d617463680000000000000000000000000000000000000000000000602082015250565b7f455243313135353a2069647320616e6420616d6f756e7473206c656e6774682060008201527f6d69736d61746368000000000000000000000000000000000000000000000000602082015250565b7f455243313135353a206d696e7420746f20746865207a65726f2061646472657360008201527f7300000000000000000000000000000000000000000000000000000000000000602082015250565b7f206973206d697373696e6720726f6c6520000000000000000000000000000000600082015250565b7f416363657373436f6e74726f6c3a2063616e206f6e6c792072656e6f756e636560008201527f20726f6c657320666f722073656c660000000000000000000000000000000000602082015250565b600060443d10156140875761410a565b61408f613754565b60043d036004823e80513d602482011167ffffffffffffffff821117156140b757505061410a565b808201805167ffffffffffffffff8111156140d5575050505061410a565b80602083010160043d0385018111156140f257505050505061410a565b61410182602001850186613a60565b82955050505050505b90565b61411681613944565b811461412157600080fd5b50565b61412d81613956565b811461413857600080fd5b50565b61414481613962565b811461414f57600080fd5b50565b61415b8161396c565b811461416657600080fd5b50565b614172816139b8565b811461417d57600080fd5b5056fea2646970667358221220d48494635fc6a14f7779f85839769b66eef16f3f1293803fcb656a9ec70d623164736f6c6343000804003368747470733a2f2f6265622d7075626c69632e73332e75732d776573742d312e616d617a6f6e6177732e636f6d2f636f6e74726163742e6a736f6e",
  "linkReferences": {},
  "deployedLinkReferences": {}
}